:020000040800F2
:1000000000000220D5020008DB020008DF02000821
:1000100051030008550300089D030008000000007C
:10002000000000000000000000000000E5030008E0
:10003000E903000800000000ED030008CD3E0008C1
:10004000010400080104000801040008010400087C
:100050000104000801040008B93D0008010400087B
:10006000010400080104000801040008010400085C
:10007000010400080104000801040008010400084C
:10008000010400080104000801040008010400083C
:10009000010400080104000801040008010400082C
:1000A000010400080104000801040008010400081C
:1000B000010400080104000801040008010400080C
:1000C00001040008010400080104000801040008FC
:1000D00001040008010400080104000801040008EC
:1000E000C33D0008010400080104000801040008E1
:1000F00001040008010400080104000801040008CC
:1001000001040008010400080104000801040008BB
:1001100001040008010400080104000801040008AB
:10012000010400080104000801040008010400089B
:10013000010400080104000801040008010400088B
:10014000010400080104000801040008010400087B
:10015000010400080104000801040008010400086B
:10016000010400080104000801040008010400085B
:100170000104000801040008010400080000000058
:10018000010400080104000800B583B002F0BEFCC1
:100190003F4B404A1360404A1360404906E052F822
:1001A000041B43F8041B9842F9D861463C4B994222
:1001B00005D20A684B6801F10C0C8868F3E7354BEF
:1001C0001A68384B9A4200D0FEE7334B1A68364B18
:1001D0009A42F9D12E4B354A1360354A1360354A9D
:1001E00000E00246344B9A4209D2104650F8083BD0
:1001F00051689942F5D9002243F8042BF9E72B4BBB
:100200001B6813B92A4B1B6803B1FEE703F0E6FA3B
:10021000694601A802F088FB284B294A9B1A9B10CB
:100220001D4600231A4607E0254B144653F822309A
:100230009847234601331A469542F5DC214B224A62
:100240009B1A9B101D4600231A4607E01E4B1446BE
:1002500053F822309847234601331A469542F5DC7D
:100260000099019803F0AAFC0546184B184A9B1AFE
:100270009B101C4606E0631E1A461C46144B53F89E
:1002800022309847002CF6DC284602F01FFB00BF06
:10029000BABADECA0000002074000020040400087E
:1002A0001C040008785634123254769878000020E6
:1002B000D80A00201C0400082C0400082C040008A4
:1002C0002C0400082C0400082C0400082C0400084E
:1002D0002C04000808B5FFF757FF00BEFEE71EF02C
:1002E000040F0CBFEFF30880EFF309807146414A19
:1002F00010472DE9F04182B080460C46124B5E6BF0
:100300009F6B9D6A1B6B13F0020F03D00E4BDB6AD1
:10031000002B0BDB0D4802F045FB00943B463246B8
:100320002946404602F068FB00BEFEE74BF6AB6193
:1003300002F0DCFB0028EDD0034B4FF00042DA6204
:1003400002B0BDE8F08100BF00ED00E018510008E8
:1003500000BEFEE71EF0040F0CBFEFF30880EFF3C2
:1003600009807146244A10472DE9F04182B0804649
:100370000C46084B5E6B9F6B9D6A074802F012FBB0
:1003800000943B4632462946404602F035FB00BE0B
:10039000FEE700BF00ED00E0285100081EF0040F4A
:1003A0000CBFEFF30880EFF309807146134A104742
:1003B0002DE9F04182B080460C46084B5E6B9F6B86
:1003C0009D6A074802F0EEFA00943B463246294601
:1003D000404602F011FB00BEFEE700BF00ED00E06A
:1003E0003451000800BEFEE700BEFEE700BEFEE797
:1003F00070470000F302000869030008B103000819
:0404000000BEFEE755
:100404001C5A000800000020780000201C5A000834
:10041400000000100000001078000020DC0A00201A
:080424000000001000000010B0
:1004300010B504460E4B18680E4B1A784FF47A73B9
:10044000B3FBF2F3B0FBF3F000F0E8F868B90F2C5F
:1004500001D901200AE0024621464FF0FF3000F0AA
:10046000A3F8054B1C60002000E0012010BD00BF78
:1004700014000020040000200800002008B50B4BE9
:100480001A6842F400721A601A6842F480621A60B4
:100490001A6842F480721A60032000F067F80F2097
:1004A000FFF7C6FF03F006FD002008BD003C024038
:1004B000034A1168034B1B780B441360704700BF5D
:1004C0007C00002004000020014B1868704700BF2A
:1004D0007C00002038B50446FFF7F6FF0546B4F16E
:1004E000FF3F02D0044B1B781C44FFF7EDFF401B7D
:1004F000A042FAD338BD00BF04000020002808DB6A
:100500000901C9B200F1604000F5614080F80013B4
:10051000704700F00F000901C9B2014B1954704730
:1005200014ED00E000B500F00700A0F1030CBCF1F1
:10053000040F07D8C0F1070E0430062806D84FF084
:10054000000C03E04FF0040E4FF0000C4FF0FF33AF
:1005500003FA0EF021EA000101FA0CF103FA0CF3A0
:1005600022EA030241EA020000BD000010B5044681
:10057000C31E042B0FD80A4AD36823F4E0631B047C
:100580001B0C240204F4E064234343F0BF6343F4F0
:100590000033D36010BD9221024803F027F9EAE747
:1005A00000ED00E0B44E000870B506460C46154656
:1005B0000F2A0ED80F2C11D80B4BD8682A4621468B
:1005C000C0F30220FFF7AEFF01463046FFF796FF6B
:1005D00070BDAA21054803F009F9EBE7AB210348F8
:1005E00003F004F9E8E700BF00ED00E0B44E0008B6
:1005F00008B5002808DB00F01F02400901239340E2
:10060000044A42F8203008BDBE21034803F0EEF84A
:10061000F9E700BF00E100E0B44E00080138B0F196
:10062000807F0BD24FF0E0235861054AF02182F819
:1006300023100020986107221A617047012070473B
:1006400000ED00E008B5042807D068B94FF0E022BB
:10065000136923F00403136108BD4FF0E02213690E
:1006600043F004031361F7E740F2C911014803F0B6
:10067000BDF8EBE7B44E00082DE9F04383B0074620
:100680000E46A04B98421FD003F5806398421BD0C2
:1006900003F58063984217D003F58063984213D026
:1006A00003F5806398420FD003F5806398420BD026
:1006B00003F58063984207D003F58063984203D026
:1006C000B321914803F092F833689AB212B1B3F5AE
:1006D000803F03D3B4218C4803F088F87368012B62
:1006E0001ED9112B1CD0022B1AD0122B18D0874ADE
:1006F000934215D002F58012934211D002F5801278
:1007000093420DD0A2F5F812934209D002F580125F
:10071000934205D002F58012934201D0032B04D1FD
:10072000B368022B06D8002446E0B521764803F0D2
:100730005DF8F5E7B621744803F058F8F3E7C821EF
:10074000714803F053F84DE0062300E000238B408E
:10075000034302326E4941F822306E4B1A686FEA49
:10076000080322EA0801706810F4803F01D048EACB
:100770000201684A1160526803EA0201706810F4CD
:10078000003F01D048EA0201624A5160926803EAE0
:100790000201706810F4801F01D048EA02015D4A2E
:1007A0009160D2681340716811F4001F01D048EACB
:1007B0000203584AD36001340F2C00F29F800125B8
:1007C000A540336803EA050835EA0303F3D17368EB
:1007D0005A1E012A03D9112B01D0122B15D1F3680F
:1007E000032BACD8BA68610003238B4022EA0302D2
:1007F000F3688B401343BB607A6822EA0502736892
:10080000C3F30013A34013437B60FA68650003231E
:10081000AB406FEA030922EA0302B368AB4013431B
:10082000FB607368022B01D0122B18D133690F2B98
:1008300001D80D2B03D1E021334802F0D7FFE208A5
:10084000083257F8220004F0070189000F238B407B
:1008500020EA030033698B40034347F822303B68AA
:1008600009EA0309736803F00303AB4043EA090391
:100870003B60736813F0805F9DD000230193264B8B
:100880005A6C42F480425A645B6C03F480430193D7
:10089000019BA208911C1E4B53F8210004F0030198
:1008A00089000F238B4020EA0300164B9F423FF440
:1008B0004DAF03F580639F4216D003F580639F42DE
:1008C00014D003F580639F4212D003F580639F42EA
:1008D00010D003F580639F420ED003F580639F42E2
:1008E0003FF432AF072332E7012330E702232EE73C
:1008F00003232CE704232AE7052328E703B0BDE8F8
:10090000F08300BF00000240E84E00080000111014
:1009100000380140003C01400038024038B5044630
:100920000D4621B123691D4207D0012038BD4FF487
:10093000BF71034802F05AFFF4E70020F6E700BF5A
:10094000E84E000870B5054614460E4621B1012C4C
:1009500008D86CB1AE6170BD40F29F11064802F03C
:1009600045FFF4E74FF4D071034802F03FFFF0E792
:100970003304AB61EFE700BFE84E000808B5054B54
:100980005B69034200D108BD024B586103F020FAB5
:10099000F9E700BF003C014003685A6912F4806F18
:1009A00001D1002070476FF480625A610023036315
:1009B000202280F83D2080F83E30026C42F0040294
:1009C000026480F83C3001207047F8B506460C46BA
:1009D00017461D4624E0FFF777FD069BC01AA84284
:1009E00000D8EDB900233363202286F83D2086F835
:1009F0003E30326C42F02002326486F83C300120F6
:100A00001EE033689B6924EA030C1FFA8CFCBCFAD5
:100A10008CFC4FEA5C1C674511D1B5F1FF3FDAD180
:100A2000C4F30743012BECD133685B6924EA030C60
:100A30001FFA8CFCBCFA8CFC4FEA5C1CEBE7002034
:100A4000F8BDF8B504460D4616461F463CE01A6848
:100A500042F400721A6023686FF480625A610023C6
:100A60002363202284F83D2084F83E30226C42F03B
:100A70000402226484F83C30012033E0FFF724FDB7
:100A8000C01BB04200D8FEB900232363202284F8A3
:100A90003D2084F83E30226C42F02002226484F82B
:100AA0003C3001201EE023689B6925EA03039BB2CA
:100AB000003B18BF0123A3B123685A6912F4806F69
:100AC000C5D1B6F1FF3FD9D1C5F30743012BEAD118
:100AD00023685B6925EA03039BB2003B18BF01232F
:100AE000E9E71846F8BD70B504460D46164623687A
:100AF0005B6913F0800F1CD12046FFF74DFFD0B982
:100B0000B5F1FF3FF3D0FFF7DFFC801BA84201D80F
:100B1000002DECD100232363202284F83D2084F8AB
:100B20003E30226C42F02002226484F83C300120E6
:100B300000E0002070BD0120FCE70000F0B585B0AA
:100B400004460D4616461F460368196841F4807135
:100B500019600B9B00930A9B00224FF00111FFF7D5
:100B600034FF60B9226805F0FE0313610B9B0A9AFB
:100B700023492046FFF765FF60B1012008E02368A4
:100B80001B6813F4807F02D04FF4007323640320AA
:100B900005B0F0BD039023685A6903929B690393E3
:100BA000039B0B9A0A992046FFF79DFF28B9012F56
:100BB0000ED12368F2B21A61EAE7236C042B01D04C
:100BC0000120E5E72268136843F400731360F7E738
:100BD000330A226813610B9A0A992046FFF783FFB4
:100BE00018B92268F3B21361D2E7236C042B01D049
:100BF0000120CDE72268136843F400731360F7E720
:100C000002000100F0B585B004460D4616461F46A9
:100C10000268136843F4806313600268136843F446
:100C2000807313600B9B00930A9B00224FF001110D
:100C3000FFF7CBFE60B9236805F0FE021A610B9B3B
:100C40000A9A40492046FFF7FCFE60B1012008E007
:100C500023681B6813F4807F02D04FF40073236471
:100C6000032005B0F0BD039023685A6903929B6985
:100C70000393039B0B9A0A992046FFF734FF80B930
:100C8000012F19D12368F2B21A610B9A0A992046F2
:100C9000FFF729FF00282DD0236C042B24D001203E
:100CA000DFE7236C042B01D00120DAE72268136808
:100CB00043F400731360F7E7330A226813610B9A59
:100CC0000A992046FFF70FFF18B92268F3B21361A3
:100CD000DBE7236C042B01D00120C2E722681368F4
:100CE00043F400731360F7E72268136843F400735A
:100CF0001360D4E72268136843F4807313600B9B7E
:100D000000930A9B02464FF001112046FFF75DFE5B
:100D100070B9226845F00103DBB213610B9B0A9A9C
:100D200008492046FFF78DFE00289AD0012098E759
:100D300023681B6813F4807F02D04FF40073236490
:100D400003208EE70200010070B504460D461646EA
:100D500023685B6913F0040F1CD12046FFF71CFECB
:100D6000D0B9B5F1FF3FF3D0FFF7AEFB801BA8422F
:100D700001D8002DECD100232363202284F83D20EC
:100D800084F83E30226C42F02002226484F83C3029
:100D9000012000E0002070BD0120FCE770B5054691
:100DA0000C4616462B68596911F0400F29D1596934
:100DB00011F0100F15D1FFF787FB801BA04201D85F
:100DC000002CEFD100232B63202285F83D2085F8ED
:100DD0003E302A6C42F020022A6485F83C30012023
:100DE00070BD6FF010025A6100232B63202285F83A
:100DF0003D2085F83E302A6C2A6485F83C3001207D
:100E0000EEE70020ECE77047002800F0468138B597
:100E100004460368A34A93420CD002F580629342D1
:100E200008D002F58062934204D040F2BF119E4880
:100E300002F0DCFC6368013B9C4A93427AD8A368C9
:100E400013B1B3F5804F7BD1E368B3F5806F7DD2EA
:100E50002369B3F5804F02D0B3F5404F7CD163696D
:100E6000012B7FD8A36933F0FE0340F08180E36952
:100E700013B1402B40F08280236A13B1802B40F0E5
:100E8000838094F83D30002B00F08480242384F884
:100E90003D302268136823F0010313602268136851
:100EA00043F4004313602268136823F40043136083
:100EB00000F040FF62687E4B9A4271D87D4B9842A9
:100EC0008CBF00230123002B40F0E9807A49A1FB6D
:100ED00000318B0CD4F800C0DCF8042022F03F0273
:100EE00042EA9142CCF8042021680A6A22F03F02CB
:100EF000DFF8BCC1D4F804E0E64557D8013313430A
:100F00000B622168CA6922F44F4222F0FF02D4F832
:100F100004C0674B9C4554D8431E4FEA4C0CB3FBAE
:100F2000FCF3013340F6FC70034200F08680C3F30B
:100F30000B0383E04FF4E0715B4802F057FC7EE75F
:100F400040F2C111584802F051FC7DE74FF4E171C5
:100F5000554802F04BFC7BE740F2C311524802F0C7
:100F600045FC7CE74FF4E2714F4802F03FFC79E723
:100F700040F2C5114C4802F039FC78E74FF4E371B8
:100F8000494802F033FC77E740F2C711464802F0C7
:100F90002DFC76E784F83C302046FFF734FF75E7F8
:100FA000464B98428CBF002301238CE74FF4967C7C
:100FB0000CFB03F3DFF808C1ACFB03C39B0901334F
:100FC0009DE7D4F808E0BEF1000F1AD1431E0CEBE8
:100FD0004C05B3FBF5F30133C3F30B03B3FA83F30F
:100FE0005B09002B57D1BEF1000F19D1431E0CEB4A
:100FF0004C0CB3FBFCF30133C3F30B0343F400438A
:101000001CE00CEB8C0303EB83031D46431EB3FB78
:10101000F5F30133C3F30B03B3FA83F35B09E0E7A2
:10102000431E0CEB8C0C0CEB8C0CB3FBFCF3013370
:10103000C3F30B0343F4404300E004231A43CA61A3
:1010400021680B6823F0C003E269206A024313435E
:101050000B6021688B6823F4034323F0FF032269AC
:10106000E068024313438B602168CB6823F0FF03E1
:101070006269A06902431343CB602268136843F09E
:101080000103136000202064202384F83D30206396
:1010900084F83E0038BD0123D0E7012070470120CD
:1010A000F8E700BF00540040184F00087F1A060000
:1010B000A08601007F841E0083DE1B43FF083D00E5
:1010C000D34D62102DE9F04182B004460F469046A0
:1010D0001E46FFF7F9F90546012E01D0102E07D163
:1010E00094F83D30202B09D0022002B0BDE8F081F9
:1010F00040F675114F4802F079FBF1E7009519238E
:1011000001224D492046FFF760FC002840F08B800B
:1011100094F83C30012B00F08880012384F83C30A7
:1011200023681A6812F0010F03D11A6842F0010215
:101130001A602268136823F400631360212384F883
:101140003D30402384F83E3000232364089B6362D3
:10115000BDF824306385638D2385384BE3620195A8
:101160000A9B00933346424639462046FFF7E6FC89
:1011700000285CD1238D002B36D02A460A992046C0
:10118000FFF7B1FC002824D1626A236812781A6143
:10119000626A531C6362218D013989B22185638D96
:1011A0009BB2013B9BB263852368586910F0040F22
:1011B000E0D00029DED052781A61636A013363629D
:1011C000238D013B2385638D9BB2013B9BB26385DD
:1011D000D0E7236C042B01D0012086E72268136836
:1011E00043F400731360F7E72A460A992046FFF795
:1011F000ABFD50B1236C042B01D0012075E72268B0
:10120000136843F400731360F7E72268136843F42C
:1012100000731360202384F83D30002384F83E30AF
:1012200084F83C3061E702205FE702205DE701209F
:101230005BE700BF184F0008020010000000FFFF2E
:101240002DE9F04387B00446884691461F46109E1C
:10125000FFF73AF90546012F01D0102F08D194F875
:101260003D30202B0AD00227384607B0BDE8F08376
:101270004FF41F618C4802F0B9FAF0E7009519238A
:1012800001228A492046FFF7A0FB002840F0468152
:1012900094F83C30012B00F04381012384F83C306A
:1012A00023681A6812F0010F03D11A6842F0010294
:1012B0001A602268136823F400631360222384F801
:1012C0003D30402384F83E30002323640E9B63624C
:1012D000BDF83C306385638D2385754BE3620195D2
:1012E00000963B464A4641462046FFF78BFC0746A0
:1012F000002840F01781238D5BB9029323685A6957
:1013000002929A690292029A1A6842F400721A6072
:1013100075E0012B0AD0022B1AD000230593236815
:101320005A6905929B690593059B68E022681368DA
:1013300023F4806313600023039323685A690392A4
:101340009A690392039A1A6842F400721A6056E08E
:101350002268136823F4806313602268136843F4DF
:10136000006313600023049323685A6904929B6905
:101370000493049B43E02A4631462046FFF70EFDC6
:10138000002840F0D18023681A69636A1A70636A82
:1013900001336362238D013B2385638D9BB2013B47
:1013A0009BB263852BE000953346002241492046DD
:1013B000FFF70BFB002840F0B9802268136843F464
:1013C0000073136023681A69636A1A70626A531C97
:1013D0006362238D013B2385638D9BB2013B9BB2EE
:1013E000638523681B695370636A01336362238DCD
:1013F000013B2385638D9BB2013B9BB26385238DAB
:10140000002B00F08280032B56D8012BB3D0022B87
:10141000C9D000953346002226492046FFF7D5FA69
:10142000002840F085802268136823F480631360ED
:1014300023681A69636A1A70636A01336362238DD1
:10144000013B2385638D9BB2013B9BB26385009575
:101450003346024617492046FFF7B7FA002869D1FC
:101460002268136843F40073136023681A69636A7F
:101470001A70626A531C6362238D013B2385638D5E
:101480009BB2013B9BB2638523681B695370636AFF
:1014900001336362238D013B2385638D9BB2013B46
:1014A0009BB26385ABE700BF184F00080200100035
:1014B0000000FFFF040001002A4631462046FFF7E6
:1014C0006DFC002838D123681A69636A1A70616A52
:1014D0004B1C6362238D013B2385638D9BB2013BD3
:1014E0009BB2638523685A6912F0040F87D01B6989
:1014F0004B70636A01336362238D013B2385638DE7
:101500009BB2013B9BB2638579E7202384F83D3091
:10151000002384F83E3084F83C30A5E60227A3E699
:101520000227A1E601279FE601279DE601279BE60A
:10153000012799E6012797E6012795E6002800F0A4
:101540005A8270B582B0044603680F2B39D82368DD
:1015500013F0010F4DD063682BB1B3F5803F02D07B
:10156000B3F5A02F32D1804B9B6803F00C03042B02
:1015700036D07D4B9B6803F00C03082B2BD063689F
:10158000B3F5803F5FD0B3F5A02F62D0764B1A68D9
:1015900022F480321A601A6822F480221A6063688A
:1015A000002B60D0FEF790FF05466F4B1B6813F4CD
:1015B000003F1ED1FEF788FF401B6428F5D90320A9
:1015C00020E2E821694802F011F9C0E7ED216748FF
:1015D00002F00CF9C7E7644B5B6813F4800FCED0C0
:1015E000614B1B6813F4003F03D06368002B00F0CD
:1015F0000482236813F0020F66D0E368012B41D800
:1016000023691F2B44D8584B9B6813F00C0F4AD00A
:10161000554B9B6803F00C03082B3FD0E368002B6D
:1016200077D0534B01221A60FEF74EFF05464E4B12
:101630001B6813F0020F63D1FEF746FF401B022820
:10164000F5D90320DEE1484A136843F48033136080
:10165000A5E7454B1A6842F480221A601A6842F4E2
:1016600080321A609BE7FEF72FFF05463E4B1B6852
:1016700013F4003FBDD0FEF727FF401B6428F5D9C7
:101680000320BFE140F21F11384802F0AFF8B7E77E
:101690004FF49071354802F0A9F8B4E7324B5B681B
:1016A00013F4800FBAD1304B1B6813F0020F03D034
:1016B000E368012B40F0A3812B4A136823F0F80361
:1016C000216943EAC1031360236813F0080F51D066
:1016D0006369012B2FD863699BB3254B0122C3F8A3
:1016E000802EFEF7F1FE05461F4B5B6F13F0020FD5
:1016F00040D1FEF7E9FE401B0228F5D9032081E125
:10170000194A136823F0F803216943EAC1031360FF
:10171000DAE7174B00221A60FEF7D6FE0546124B99
:101720001B6813F0020FCFD0FEF7CEFE401B02283D
:10173000F5D9032066E14FF4B0710C4802F056F879
:10174000C9E70B4B0022C3F8802EFEF7BDFE05460D
:10175000054B5B6F13F0020F0CD0FEF7B5FE401B7C
:101760000228F5D903204DE100380240484F000817
:1017700000004742236813F0040F7ED0A368012BBA
:1017800001D9052B39D1A24B1B6C13F0805F3AD1E4
:10179000002301939E4B1A6C42F080521A641B6C1A
:1017A00003F080530193019B01231E46994B1B6854
:1017B00013F4807F2AD0A368012B3BD0052B3FD0A8
:1017C000934B1A6F22F001021A671A6F22F004027B
:1017D0001A67A368002B3DD0FEF776FE05468C4BBA
:1017E0001B6F13F0020F46D1FEF76EFE401B41F255
:1017F00088339842F3D9032004E14FF4C671864838
:1018000001F0F4FFBFE700231E46CFE7814A1368CB
:1018100043F480731360FEF757FE05467D4B1B684B
:1018200013F4807FC7D1FEF74FFE401B0228F5D985
:101830000320E7E0764A136F43F001031367C8E71C
:10184000734B1A6F42F004021A671A6F42F00102DA
:101850001A67BEE7FEF738FE05466D4B1B6F13F0A7
:10186000020F08D0FEF730FE401B41F28833984249
:10187000F3D90320C6E0002E3BD1A369022B3ED84A
:10188000A369002B00F0BD80614A926802F00C024F
:10189000082A00F09080022B79D1E36913B1B3F5E7
:1018A000800F32D1236A3F2B35D8636A323BB3F5C0
:1018B000BF7F36D8A36A022B05D0042B03D0062B9A
:1018C00001D0082B33D1E36A023B0D2B35D8534BA3
:1018D00000221A66FEF7F8FD05464D4B1B6813F013
:1018E000007F30D0FEF7F0FD401B0228F5D9032021
:1018F00088E0474A136C23F080531364BDE740F23D
:10190000CF11454801F072FFBAE74FF4EC7142483D
:1019100001F06CFFC6E740F2D9113F4801F066FFC5
:10192000C3E74FF4ED713C4801F060FFC2E740F2BD
:10193000DB11394801F05AFFC5E74FF4EE71364824
:1019400001F054FFC3E7E369226A1343626A43EA82
:101950008213A26A5208013A43EA0243E26A43EA66
:1019600002632B4A53602D4B01221A66FEF7ACFD31
:101970000446274B1B6813F0007F06D1FEF7A4FD39
:10198000001B0228F5D903203CE000203AE0234B5D
:1019900000221A66FEF798FD04461D4B1B6813F0E3
:1019A000007F06D0FEF790FD001B0228F5D903202A
:1019B00028E0002026E0012B26D0154B5B6803F4BD
:1019C0008001E269914221D103F03F02216A8A42FB
:1019D00026D1616A47F6C0721A408A4222D103F4C6
:1019E0004032A16A8A421FD103F07063E26A9342D7
:1019F0001CD1002006E001207047012002E00120F8
:101A000000E0184602B070BD0120FBE70120F9E7B5
:101A10000038024000700040484F00080000474274
:101A20000120EFE70120EDE70120EBE70120E9E7E6
:101A300008B5334B9B6803F00C03042B5BD0082BD9
:101A40005BD12F4B5A6802F03F025B6813F4800FA2
:101A50002CD02B4B5868C0F388104FEA401CBCEBCD
:101A6000000C6EEB0E0E4FEA8E1343EA9C634FEAB6
:101A70008C11B1EB0C0163EB0E03DB0043EA5173F5
:101A8000C90011EB000C43F10003590200234FEA97
:101A90004C2041EADC5102F0B1FA194B5B68C3F308
:101AA000014301335B00B0FBF3F008BD144B5868F1
:101AB000C0F388104FEA401CBCEB000C6EEB0E0E1E
:101AC0004FEA8E1343EA9C634FEA8C11B1EB0C0191
:101AD00063EB0E03DB0043EA5173C90011EB000C0A
:101AE00043F10003990200234FEA8C2041EA9C5104
:101AF00002F084FAD1E70348D7E70348D5E700BFEF
:101B00000038024000127A000024F400002800F09F
:101B1000F78070B50D4604460368013B0E2B6BD869
:101B2000072D6FD87A4B1B6803F00703AB4208D22E
:101B3000EBB2774A1370136803F00703AB4240F02F
:101B4000E180236813F0020F29D013F0040F04D0B2
:101B5000704A936843F4E0539360236813F0080FCE
:101B600004D06C4A936843F460439360A3687BB1EC
:101B7000802B0DD0902B0BD0A02B09D0B02B07D0F1
:101B8000C02B05D0D02B03D0E02B01D0F02B3FD1C0
:101B9000604A936823F0F003A1680B4393602368C5
:101BA00013F0010F4ED06368032B37D86368012B05
:101BB0003AD09A1E012A3ED9564A126812F0020FF4
:101BC00000F0A28053498A6822F0030213438B601D
:101BD000FEF77AFC06464F4B9B6803F00C036268E5
:101BE000B3EB820F2ED0FEF76FFC801B41F28833DF
:101BF0009842F0D9032076E040F25121464801F0A6
:101C0000F5FD8DE740F25221434801F0EFFD89E7F1
:101C100040F27521404801F0E9FDB9E74FF41F712A
:101C20003D4801F0E3FDC1E73A4A126812F4003F73
:101C3000C8D1012057E0374A126812F0007FC1D1A5
:101C4000012050E0324B1B6803F00703AB4207D979
:101C5000EAB22F4B1A701B6803F00703AB4255D151
:101C6000236813F0040F14D0E3685BB1B3F5805F11
:101C700008D0B3F5A05F05D0B3F5C05F02D0B3F5CF
:101C8000E05F31D1234A936823F4E053E1680B43CA
:101C90009360236813F0080F15D023695BB1B3F587
:101CA000805F08D0B3F5A05F05D0B3F5C05F02D068
:101CB000B3F5E05F1ED1174A936823F460432169AE
:101CC00043EAC1039360FFF7B3FE124B9B68C3F373
:101CD0000313124AD35CD840114B1860114B18689B
:101CE000FEF7A6FB002070BD40F2BA210A4801F0C1
:101CF0007DFDC7E740F2C121074801F077FDDAE733
:101D0000012070470120EEE70120ECE70120EAE71F
:101D1000003C024000380240484F000800590008CB
:101D20001400002008000020014B1868704700BF15
:101D30001400002008B5FFF7F7FF044B9B68C3F3BE
:101D40008223034AD35CD84008BD00BF003802405C
:101D5000F8580008F8B505460F4616461C462B688D
:101D60009B6837EA03030CBF4FF0010C4FF0000CE7
:101D7000B44537D0B4F1FF3FF1D0FEF7A5FB069B89
:101D8000C01AA04201D2002CE9D12A68536823F07E
:101D9000E00353606B68B3F5827F0BD0AB6AB3F599
:101DA000005F14D0012385F85130002385F85030AE
:101DB000032018E0AB68B3F5004F02D0B3F5806F95
:101DC000ECD12A68136823F040031360E6E72A6821
:101DD000136823F4005313602A68136843F4005314
:101DE0001360DFE70020F8BD10B584B00446164B41
:101DF0001868164BA3FB0030400D4FF47A7303FBB9
:101E000000F003906368B3F5827F0BD0039BBBB1F6
:101E1000039B013B039323689B6813F0800FF5D16C
:101E200000200EE000920B46002280212046FFF7A2
:101E300091FF30B1636D43F020036365032000E040
:101E4000184604B010BD00BF14000020819F5E162C
:101E500010B582B004460B464168B1F5827F14D0BC
:101E60006168B1F5827F2AD1A168B1F5806F19D080
:101E70000092002280212046FFF76CFF30B3636D93
:101E800043F020036365032020E08168B1F5004F33
:101E900002D0B1F5806FE3D12068016821F04001E4
:101EA0000160DDE70092002201212046FFF752FF8A
:101EB00060B1636D43F020036365032006E0009288
:101EC000002201212046FFF745FF08B902B010BDEE
:101ED000636D43F0200363650320F7E7704700005C
:101EE000002800F0EC8010B504460368754A934260
:101EF00014D0A2F57842934210D002F5806293424A
:101F00000CD002F57842934208D002F5E052934299
:101F100004D04FF4A1716C4801F068FC636813B100
:101F2000B3F5827F76D1A3682BB1B3F5806F02D071
:101F3000B3F5004F74D1E368B3F5006F01D0002B07
:101F400074D1A369B3F5007F03D013B1B3F5802F2B
:101F500072D1E3696BB1082B0BD0102B09D0182B71
:101F600007D0202B05D0282B03D0302B01D0382BC5
:101F700068D1236A0BB1802B6AD1636A0BB1102B35
:101F80006CD1636A33B923690BB1022B6CD16369DD
:101F9000012B6FD8A36A13B1B3F5005F70D1A36AA8
:101FA000B3F5005F72D094F85130002B7DD002233E
:101FB00084F851302268136823F04003136063688B
:101FC000A2681343E268134322691343626913430F
:101FD000A26902F400721343E2691343226A1343B5
:101FE000A16A22680B431360638B03F00403616AE8
:101FF00022680B435360A36AB3F5005F5BD022688D
:10200000D36923F40063D36100206065012384F861
:10201000513010BD40F243112B4801F0E7FB82E73D
:102020004FF4A271284801F0E1FB84E740F245112A
:10203000254801F0DBFB84E74FF4A371224801F04F
:10204000D5FB86E740F247111F4801F0CFFB90E730
:102050004FF4A4711C4801F0C9FB8EE740F249110E
:10206000194801F0C3FB8CE74FF4A671164801F044
:10207000BDFB8CE740F24D11134801F0B7FB89E737
:102080004FF4A871104801F0B1FB88E7E36A591ECC
:102090004FF6FE72914202D813F0010F83D140F245
:1020A0005311094801F0A2FB7DE784F85030204627
:1020B000FFF714FF7BE72368E26A1A619FE70120BC
:1020C000704700BF00300140784F000870470000A3
:1020D00060B310B504460368154A934214D0A2F5C4
:1020E0007842934210D002F5806293420CD002F500
:1020F0007842934208D002F5E052934204D04FF464
:10210000D4710C4801F072FB022384F8513022682C
:10211000136823F0400313602046FFF7D7FF002029
:10212000606584F8510084F8500010BD01207047AC
:1021300000300140784F00082DE9F04383B0044699
:10214000894690461D46836813B1B3F5004F4FD1C1
:1021500094F85030012B00F0E880012384F85030CF
:10216000FEF7B2F9074694F85130DEB2012B40F089
:10217000C9804A46002A00F0C6804146002900F086
:10218000C280032384F8513000236365C4F8309083
:10219000A4F83480A4F83680A363A387E38763643C
:1021A0002364A368B3F5004F28D0A36AB3F5005F9A
:1021B0002AD023681A6812F0400F03D11A6842F03F
:1021C00040021A60E368B3F5006F28D0636813B16A
:1021D0004346012B5ED1226B236812781A73236B5E
:1021E00001332363E38E9BB2013B9BB2E38651E054
:1021F00040F2F2214E4801F0F9FAA9E7226813688B
:1022000043F480431360D0E72268136823F400533B
:1022100013602268136843F400531360C9E76368CE
:1022200013B14346012B16D1226B23681288DA6062
:10223000236B02332363E38E9BB2013B9BB2E386A5
:1022400009E0FEF741F9C01BA84202D3B5F1FF3FF8
:1022500063D1002D63D0E38E9BB2002B33D0236873
:102260009A6812F0020FECD0226B1288DA60236BAE
:1022700002332363E38E9BB2013B9BB2E386EAE722
:10228000FEF722F9C01BA84202D3B5F1FF3F48D1A7
:10229000002D48D0E38E9BB2ABB123689A6812F050
:1022A000020FEDD0226B12781A73236B0133236374
:1022B000B4F836C01FFA8CFC0CF1FF3C1FFA8CFC02
:1022C000A4F836C0E6E7A36AB3F5005F14D03A4637
:1022D00029462046FFF788FD08B120236365A368DF
:1022E00033B901932368DA6801929B680193019BDB
:1022F000636D43B91E4606E02268136843F48053B9
:102300001360E4E70226012384F85130002384F8A7
:102310005030304603B0BDE8F0830326F3E70326D0
:10232000F1E70326EFE70326EDE70226F1E700BF1A
:10233000784F00082DE9F04385B004460F469146DA
:1023400098460C9D8368002B61D194F85030012B86
:1023500000F08281012384F85030FEF7B5F806467C
:1023600094F85130D9B26268012B0AD0B2F5827F5D
:1023700040F04E81A368002B40F05681042940F0C4
:102380005681002F00F056814B46002B00F05581FE
:102390004346002B00F0548194F85130042B02D0B6
:1023A000052384F8513000236365C4F83890A4F8FD
:1023B0003E80A4F83C802763A4F83680A4F83480DB
:1023C00023646364A36AB3F5005F26D023681A68A8
:1023D00012F0400F03D11A6842F040021A60E3681D
:1023E000B3F5006F24D0636813B14346012B0BD1C2
:1023F000226B236812781A73236B01332363E38EF5
:102400009BB2013B9BB2E38601231F469DE040F255
:102410005A41934801F0EAF997E72268136823F4D8
:10242000005313602268136843F400531360CDE730
:10243000636813B14346012B0BD1226B23681288CA
:10244000DA60236B02332363E38E9BB2013B9BB2C2
:10245000E38601231F4626E02268136843F4805375
:10246000136000231F4601E000231F462268936883
:1024700013F001030ED0E18F89B259B1D168A26B7C
:102480001180A26B0232A263E28F92B2013A92B241
:10249000E2871F46FEF718F8801BA84203D3B5F168
:1024A000FF3F40F0D080E38E9BB21BB9E38F9BB21D
:1024B000002B71D023689A6812F0020FD6D0E28EFA
:1024C00092B2002AD2D0002FD0D0226B1288DA60CC
:1024D000236B02332363E38E9BB2013B9BB2E38603
:1024E000E38E9BB2002BBFD1A36AB3F5005FB3D0DC
:1024F00000231F46BAE72268136843F48053136031
:1025000000231F4601E000231F462268936813F052
:1025100001030ED0E18F89B259B1D168A26B11705D
:10252000A26B0132A263E28F92B2013A92B2E287C9
:102530001F46FDF7C9FF831BAB4203D3B5F1FF3F35
:1025400040F08480002D00F08480E38E9BB213B9AC
:10255000E38F9BB203B323689A6812F0020FD4D0C2
:10256000E28E92B2002AD0D0002FCED0226B127809
:102570001A73236B01332363E38E9BB2013B9BB23F
:10258000E386E38E9BB2002BBDD1A36AB3F5005F57
:10259000B1D000231F46B8E7A36AB3F5005F0ED0A1
:1025A00023689A6812F0100F1BD0626D42F002028D
:1025B00062654FF6EF729A6001231F4613E00096A2
:1025C0002B46012211462046FFF7C4FB10B92368B1
:1025D000DB68E5E7636D43F00203636503231F4691
:1025E00018E000231F46324629462046FFF7FCFB31
:1025F00048B9A36873B903932368DA6803929B68A8
:102600000393039B06E02023636501231F4601E03B
:1026100002231F46012384F85130002384F85030F0
:10262000384605B0BDE8F08302231F46F2E70223D7
:102630001F46EFE701231F46ECE701231F46E9E7AA
:1026400001231F46E6E703231F46E3E703231F4654
:10265000E0E703231F46DDE702231F46E0E700BF54
:10266000784F00082DE9F04383B004468846914630
:102670001D464368B3F5827F3ED094F85030012B5D
:1026800000F00681012384F85030FDF71DFF074656
:1026900094F85130DAB21646012B40F0DE80424603
:1026A000002A00F0DC804946002900F0D88004238D
:1026B00084F8513000236365C4F83880A4F83C9056
:1026C000A4F83E902363A386E38623646364A36A2D
:1026D000B3F5005F1DD0A368B3F5004F29D0236880
:1026E0001A6812F0400F03D11A6842F040021A60D3
:1026F000E368002B2FD04DE08368002BBDD104236D
:1027000080F85130009513460A46FFF713FE06463F
:10271000ABE02268136823F4005313602268136847
:1027200043F400531360E38F9BB2013B9BB2E387FA
:10273000D1E72268136823F480431360CFE7FDF7E5
:10274000C3FEC01BA84203D3B5F1FF3F40F0918008
:10275000002D00F09180E38F9BB2002B33D02368D3
:102760009A6812F0010FEAD0A26B1B7B1370A36B67
:102770000133A363E38F9BB2013B9BB2E387EAE79C
:10278000FDF7A2FEC01BA84202D3B5F1FF3F76D1F0
:10279000002D77D0E38F9BB2ABB123689A6812F01B
:1027A000010FEDD0DA68A36B1A80A36B0233A36329
:1027B000B4F83EC01FFA8CFC0CF1FF3C1FFA8CFCF5
:1027C000A4F83EC0E6E7A36AB3F5005F18D03A4626
:1027D00029462046FFF73CFB08B1202363652368A8
:1027E0009A6812F0100F06D0626D42F00202626524
:1027F0004FF6EF729A60636D002B30D11E462EE0CB
:102800002268136843F48053136000972B4601221B
:1028100011462046FFF79EFA002836D1E368B3F54B
:10282000006F0ED02268A36B127B1A7000972B46A4
:10283000012211462046FFF78DFA38B92368DB687C
:10284000C5E72368DA68A36B1A80EFE7636D43F08E
:102850000203636503231E4601E002231E46012393
:1028600084F85130002384F85030304603B0BDE87E
:10287000F08303231E46F2E703231E46EFE70323FC
:102880001E46ECE703231E46E9E703231E46E6E760
:1028900002231E46E9E7000000B583B08C461946C6
:1028A0005AB19646064BCDF804E0009363460246C3
:1028B000044800F077F800F00BF8034B9E46F2E76F
:1028C000A84F0008B84F0008DC510008FEE70000E0
:1028D00008B5034800F080F80120FFF7F7FF00BFBC
:1028E000E84F000808B503460C4A12685AB10B4A73
:1028F0001068033323F003030344094A934206D8C4
:10290000064A136008BD054A06491160EFE701F069
:1029100007FE0C2303604FF0FF30F3E78000002038
:1029200000FC0120DC0A002001230360014B0B6046
:10293000704700BF0C0000202DE9F04385B004462D
:102940000F4643563BBB042528462146ABBE0546F1
:10295000384605B0BDE8F08314F901CB03F110024D
:102960006A4402F810CC0133AB42F5D310336B4408
:10297000002203F8102C4FF00408E946404649466F
:10298000ABBE8046761B002EE2D03546102E28BF07
:1029900010250023E8E70E46F5E708B5FFF7CCFF62
:1029A00008BD00000FB400B583B004AB53F8042B8E
:1029B00001938021074801F00DFD002804DC03B0DD
:1029C0005DF804EB04B0704701460248FFF7E5FFED
:1029D000F5E700BF8C00002010B5044601F0B4FDFF
:1029E00001462046FFF7D9FF01210248FFF7D5FF36
:1029F00010BD00BF38580008F8B504460D4616460D
:102A00001F462748FFF7CEFF21682648FFF7CAFF79
:102A100061682548FFF7C6FFA1682448FFF7C2FF99
:102A2000E1682348FFF7BEFF21692248FFF7BAFF9C
:102A300061692148FFF7B6FFA1692048FFF7B2FF9F
:102A4000E1691F48FFF7AEFF1E48FFF7ABFF2946BD
:102A50001D48FFF7A7FF1D4CE16A1D48FFF7A2FFC5
:102A6000216B1C48FFF79EFFE16B1B48FFF79AFFA5
:102A700015F0800F0AD115F4004F0CD11748FFF75D
:102A800091FF06991648FFF78DFFF8BD31461548AE
:102A9000FFF788FFEFE739461348FFF783FFEDE7BD
:102AA000FC4F00080C5000081C5000082C50000877
:102AB0003C5000084C5000085C5000086C50000866
:102AC0007C5000088C5000089850000800ED00E091
:102AD000A8500008B8500008C8500008F850000876
:102AE00000510008D8500008E850000883691A888F
:102AF0008A4201D0002070470268033A012A01D9B6
:102B000000207047023383610120704708B500F050
:102B100009F8024A024B9A6008BD00BF0000000895
:102B200000ED00E0024B4FF000629A60704700BF7A
:102B300000ED00E0224B9B6803F00C03042B11D046
:102B4000082B13D0002B37D11E4B1F4A1A601C4B89
:102B50009B68C3F303131D4AD15C1A4A1368CB4028
:102B600013607047174B1A4A1A60F0E7144B596804
:102B70005A6802F03F0211F4800F13D0144BB3FBDC
:102B8000F2F30F4A5268C2F3881202FB03F30C4AB5
:102B90005268C2F3014201325200B3FBF2F3094A18
:102BA0001360D4E7084BB3FBF2F3054A5268C2F353
:102BB000881202FB03F3EAE7024B034A1A60C6E7F6
:102BC00000380240140000200024F40000590008DE
:102BD00000127A0010B5864690F900302D2B04D0F3
:102BE00000231C46A44600200FE000F1010E012343
:102BF0001C46F7E700EB8000303B03EB40000EF192
:102C0000010E0CF1010C5FFA8CFC9EF90030A3F16F
:102C10003002D2B2092AEDD909B181F800C004B955
:102C200010BD4042FCE770B582B004460E46002558
:102C30000AE00DF107012046FFF7CCFF6B1C705531
:102C4000DDB29DF807301C4494F900303BB10123FC
:102C50008DF8073094F900302E2BF2D0E9E702B05E
:102C600070BD0000F8B504460F461646D0F818515E
:102C7000084601F069FCD4F8F02881B23846A8472C
:102C800000281ADDD4F81C31D4F8F0280021304691
:102C90009847002813DD002333540A49304601F0D9
:102CA00029FC08B100200BE00749304601F022FC66
:102CB00008B1022004E0042002E0042000E0042027
:102CC000F8BD00BF44510008505100082DE9F04103
:102CD00004460E4690461F46084601F035FC10F0AB
:102CE000010F33D1054681B2D4F81831D4F8F02859
:102CF000304698471FFA85FC604502D00420BDE8A5
:102D0000F081D4F81831D4F8F02839464046984775
:102D1000B8421DD1D4F81C31D4F8F028002106980F
:102D20009847002816DD0023069A13540A491046D6
:102D300001F0E0FB08B10020E1E70849069801F046
:102D4000D9FB08B10220DAE70420D8E70220D6E751
:102D50000220D4E70420D2E7445100085051000873
:102D600038B5054608462749023001F05DFB0023CF
:102D700017E0052B35D0062B39D0042B0CD11022AF
:102D8000014605F1500001F03BFB05E01022014631
:102D900005F1200001F034FB1A49002001F044FB4A
:102DA000234670B35C1CE4B2032B13D0E1D8012B93
:102DB000ECD0022B07D0002BEED120220146284672
:102DC00001F01EFBE8E71022014605F1300001F09A
:102DD00017FBE1E71022014605F1400001F010FB6E
:102DE000DAE70021FFF7F6FEC5F88000D4E70649D0
:102DF00001F01AFB0146202205F1600001F000FB02
:102E0000CAE738BD58510008C051000838B50D4612
:102E10003649023001F008FB002328E0042B48D09B
:102E2000052B1FD105F14801FFF7FDFE1AE0092B24
:102E30004FD009D90A2B51D00B2B13D10021FFF70A
:102E4000C9FE85F846000DE0072B3DD0082B09D1BF
:102E500005F15401FFF7E7FE04E021220146284670
:102E600001F0CEFA2149002001F0DEFA2346D8B362
:102E70005C1CE4B2062B22D0D9D8032B13D0CDD8BA
:102E8000012B04D0022B08D0002BE6D0EAE7212248
:102E90000146A81801F0B4FAE4E70021FFF79AFE12
:102EA00085F84200DEE70021FFF794FE85F8430035
:102EB000D8E70021FFF78EFE85F84700D2E705F13D
:102EC0004C01FFF7B0FECDE705F15001FFF7ABFE77
:102ED000C8E705F15801FFF7A6FEC3E70021FFF799
:102EE00079FE85F84400BDE738BD00BF58510008A1
:102EF00070B5044647F23053C0F8F038D0F80C31C2
:102F0000984718B102231D46284670BD04F59073FA
:102F10001E461A4605492046FFF7A4FE054600282E
:102F2000F2D131462046FFF71BFFEDE75C51000868
:102F300088B191B19AB1009A9AB1019A9AB1C0F848
:102F40000C11009AC0F81821019AC0F81C21C0F891
:102F50001431002070470220704702207047022081
:102F6000704702207047022070470000F8B5044601
:102F700016461F4600F590750A461A49284601F084
:102F8000DFF92A4629462046FFF76CFE00B1F8BD5E
:102F900032461549284601F0D3F92A4629462046EB
:102FA000FFF760FE0028F2D184F884703A460F499A
:102FB000284601F0C5F92A4629462046FFF752FE69
:102FC0000028E4D10A49284601F0BAF92A462946E0
:102FD0002046FFF747FE0028D9D1012384F8CA30E4
:102FE000D5E700BF645100086C5100087451000817
:102FF0007C51000870B5044600F5907509492846D3
:1030000001F09EF92A4629462046FFF72BFE064688
:1030100008B1304670BD04F185012846FFF7F6FE81
:10302000F7E700BF8051000870B582B005460E4634
:1030300000F590744A782849204601F081F922462B
:1030400021462846FFF70EFE08B102B070BD327867
:103050002249204601F074F9224621462846FFF70E
:1030600001FE0028F1D13378012B01D1B38833BBA5
:1030700072881B49204601F063F922462146284602
:10308000FFF7F0FD0028E0D1337A727A01920093C5
:10309000F379B2791349204601F052F922462146CC
:1030A0002846FFF7DFFD0028CFD10F49204601F069
:1030B00047F9224621462846FFF7D4FDC5E7728826
:1030C0000A49204601F03CF9224621462846FFF7EE
:1030D000C9FD0228CCD1B8E7845100088C51000802
:1030E0009C510008A4510008B451000894510008F4
:1030F00038B5044600F590754A780A49284601F02B
:103100001FF92A4629462046FFF7ACFD00B138BD1D
:103110000549284601F014F92A4629462046FFF7BA
:10312000A1FDF4E784510008BC5100082DE9F041ED
:1031300082B0054690461C46B3F5966F01D34FF416
:103140009664089B1C8005F590760A461B4930461C
:1031500001F0F6F8324631462846FFF783FD074670
:1031600028B1022F26D0384602B0BDE8F081099A76
:103170001349304601F0E4F8324631462846FFF75D
:1031800071FD07460028ECD122460E49304601F079
:10319000D7F800962346424631462846FFF796FD6B
:1031A00007460028DDD10849304601F0A3F9002880
:1031B000D7D002270023089A1380D4E7845100084F
:1031C000C4510008CC510008D85100082DE9F04F37
:1031D0008BB0002401944D4B1A6C42F400421A64E7
:1031E0001A6C02F400420192019A02941A6B42F0A6
:1031F00002021A631A6B02F002020292029A03940C
:103200001A6B42F040021A631A6B02F040020392FA
:10321000039A04941A6B42F080021A631B6B03F04A
:1032200080030493049B3A4F22464FF400413846F2
:10323000FDF788FB4FF4004305930125069507949D
:10324000089405AE31463846FDF716FA4FF4805A19
:10325000CDF814A02F4B069307940894DFF8B8908C
:1032600031464846FDF708FA224602212820FDF79C
:103270009BF92820FDF7BCF9DFF8A0B02A4602210F
:103280005846FDF75FFB4FF00208CDF81480069515
:1032900007940894099431465846FDF7EDF92A46FB
:1032A0004FF400614846FDF74DFB4FF40063059372
:1032B00006950794089531464846FDF7DDF9CDF8A7
:1032C00014A0CDF818800794089507230993314678
:1032D0003846FDF7D1F920230593CDF818800794DF
:1032E00008950624099431463846FDF7C5F91023A0
:1032F0000593CDF81880079508950994314638460E
:10330000FDF7BAF90BB0BDE8F08F00BF00380240FE
:10331000000402400000111000180240001C02408E
:1033200070B586B0FDF7D0F89348FFF73BFB934CA0
:10333000934B23602046FFF749FF9248FFF732FB8B
:103340004FF4827363600023A3604FF40062E26075
:10335000236163614FF40072A2611022E261236273
:103360006362A362E3622046FEF7BAFD002861D1E2
:1033700006468548FFF716FB8448FFF713FB844891
:10338000FFF710FB834C002202212046FDF7DAFAFA
:103390008148FFF707FB0A20FDF79CF87F48FFF7FD
:1033A00001FB012202212046FDF7CCFA7C48FFF701
:1033B000F9FA4FF4FA70FDF78DF87A48FFF7F2FA50
:1033C000A4F5806400224FF400612046FDF7BAFAAC
:1033D0000A20FDF77FF87448FFF7E4FA4FF48051B4
:1033E0002046FDF79BFA01467048FFF7DBFA70486C
:1033F000FFF7D8FAFDF768F8054600244FF480512E
:103400006C48FDF78BFA012837D00134FDF75CF8E2
:10341000401B41F28833984212D8674BA3FB042328
:103420005B09642202FB1343002BE7D10120FDF767
:1034300051F8E3E76148FFF7B5FA4FF0FF301AE0C3
:10344000FDF742F8411B5E48FFF7ACFA594C4FF4C8
:1034500080512046FDF762FA01465A48FFF7A2FA6A
:1034600001224FF400612046FDF76CFA0A20FDF7B7
:1034700031F84FF0FF3006B070BD5348FFF792FAB5
:10348000FDF722F805464FF480514A48FDF746FA09
:10349000012826D1052E24D84FF47A73012204A9DD
:1034A00031443648FFF7DEF804460236F6B2FDF73F
:1034B0000BF8431B41F28832934201D8002CE2D032
:1034C000224631464148FFF76DFA01224FF4006170
:1034D0003848FDF737FA0A20FCF7FCFF4FF0FF30C1
:1034E000C9E731463A48FFF75DFA9DF813309DF879
:1034F00014209DF815100291019200939DF812304E
:103500009DF811209DF810103248FFF74BFA9DF8F6
:103510001030152B21D19DF81130152B1DD19DF8A0
:1035200012300D2B19D19DF813300A2B15D19DF8AF
:1035300014303E2B11D19DF81530202B0DD126488B
:10354000FFF730FA01224FF400611A48FDF7FAF94B
:103550000A20FCF7BFFF00208DE72048FFF722FA82
:1035600001224FF400611348FDF7ECF90A20FCF743
:10357000B1FF4FF0FF307EE7E0510008100100205E
:10358000003C0040145200086C5200089C52000895
:10359000C8520008001C0240F452000818530008EA
:1035A000485300087C530008B0530008EC5300084F
:1035B00018540008001802401F85EB513C520008C7
:1035C00058540008A8540008DC540008105500089E
:1035D00064550008A05500081C560008E85500086E
:1035E00008B50248FEF774FD002008BD1001002058
:1035F0002DE9F041064688461546FCF765FF07466B
:1036000001224FF400612C48FDF79CF90A20FCF7D9
:1036100061FF4FF480512848FDF780F9012809D057
:10362000FCF752FFC01BA842F3D94FF0FF342046ED
:10363000BDE8F08100224FF400611F48FDF782F9D8
:103640000A20FCF747FF00240DE02B4601223146FB
:103650001A48FFF707F8023424B20236FCF734FFA9
:10366000C31BAB4219D84FF480511348FDF756F9EC
:10367000012804D14445E8DBB8F1000FE5D016F885
:10368000013C152B15D001224FF400610A48FDF7CB
:1036900059F90A20FCF71EFFC9E701224FF4006127
:1036A0000548FDF74FF90A20FCF714FF4FF0FF34EF
:1036B000BDE7013C24B2E6E70018024010010020FB
:1036C000F8B507460E461446FCF7FEFE05464FF4D5
:1036D00080511448FDF722F9012807D0FCF7F4FEC9
:1036E000401BA042F3D94FF0FF3017E000224FF407
:1036F00000610C48FDF726F90A20FCF7EBFE16F0F6
:10370000010F01D00A23BB55721C234652083946CB
:103710000548FEF711FD10B9B85530B2F8BD4FF0AD
:10372000FF30FBE7001802401001002008B5FCF74D
:10373000D1FE08BDF0B595B000240094244B1A6C5E
:1037400042F080521A641B6C03F080530093009B7C
:103750000194204B1A6842F440421A601B6803F43B
:1037600040430193019B07AF34222146384600F0C5
:103770003FFE0225079501230A9310230B930D9515
:103780000F934FF4A87310930426119607231293F6
:103790003846FDF7D3FE02A8029444608460C460FA
:1037A00004610F23029303954FF480530593294638
:1037B000FEF7ACF9FEF7B8FA074BA3FB003080091F
:1037C000FCF72CFF3046FCF73DFF15B0F0BD00BF05
:1037D0000038024000700040D34D621008B5FCF77D
:1037E0004DFEFFF7A7FFFFF7A5F908BD08B50A468C
:1037F00001460248FFF7D6F8FEE700BF5056000822
:1038000084B0002807DB2B230B7000BB30238DF81E
:103810000430012216E02D230B704042F5E7134BD4
:1038200083FB003CC317C3EBAC039C4603EB830351
:10383000A0EB4303303302F11000684400F80C3C65
:10384000604601320028EADC531E012009E0002214
:10385000F8E703F110026A4412F90C2C0A54013BF8
:103860000130002BF5DA04B0704700BF676666666A
:10387000F0B58BB005460C461F4607A91046FFF76A
:10388000BFFF00F128020DEB0200002600F80C6CCF
:1038900004A93846FFF7B4FF00F128030DEB03003D
:1038A00000F8186C01A91098FFF7AAFF00F128038F
:1038B0000DEB030000F8246C2B4B304602E0013383
:1038C0002A54013093F900207AB1611E8142F6DC5E
:1038D00007AA02E001322B54013092F9003033B1D3
:1038E000611E8142F6DC214B02E007AAF5E71F4B7F
:1038F00093F900209AB1611E814203DD01332A54FD
:103900000130F5E704AB02E001332A54013093F9AA
:1039100000208AB1611E8142F6DC154B04E004AB45
:10392000F5E701332A54013093F9002032B1611ECA
:103930008142F6DC01AB02E00D4BF5E701AB93F9F8
:10394000002032B1611E814203DD01332A5401306F
:10395000F5E7013C844202DD0A232B5401300023A9
:103960002B540BB0F0BD00BF8056000884560008F1
:103970008856000870B594B007AE34220021304656
:1039800000F036FD02AD00240294039404940594E3
:10399000069400941D4B1A6C42F080521A641B6C02
:1039A00003F080530093009B0194194B1A6842F472
:1039B00040421A601B6803F440430193019B0223B9
:1039C000079301230A9310230B930D943046FDF7C0
:1039D000B5FD0F23029303940494059406942146A5
:1039E0002846FEF793F8FEF79FF90A4BA3FB003039
:1039F0008009FCF713FE0420FCF724FE2246214632
:103A00004FF0FF30FCF7D0FD14B070BD003802401D
:103A100000700040D34D621070B588B003AD002433
:103A20000394049405940694079401941A4B1A6B1A
:103A300042F001021A631A6B02F001020192019A2C
:103A400002941A6B42F002021A631B6B03F002032A
:103A50000293029B4FF440630393122304930126C5
:103A60000596032306930423079329460B48FCF786
:103A700003FE03960A4B0493059429460948FCF774
:103A8000FBFD224602210620FCF78EFD0620FCF7F6
:103A9000AFFD08B070BD00BF003802400004024016
:103AA000000011100000024000B583B00023019314
:103AB0000B4A116C41F480011164126C02F4800213
:103AC0000192019A0748084A0260084A42608360EE
:103AD000C3604FF480430361FDF796F903B000BD66
:103AE000003802407C01002000580040A086010000
:103AF00000B583B000F064FA6420FCF7EBFC002012
:103B0000019041F288330093044B054A012100F0F3
:103B10002FFAB0FA80F0400903B000BD1800002071
:103B20008C56000830B587B000228DF817208DF82C
:103B3000162064230293012301930DF117010091D4
:103B400080211A48FDF77CFB10B99DF8171019B9B0
:103B50001748FEF741FFFEE71648FEF723FFB6239E
:103B60008DF8163064240294012501950DF1160399
:103B700000932B46102280210C48FDF7A3FA322037
:103B8000FCF7A8FC02238DF81630029401950DF184
:103B9000160300932B46212280210448FDF792FA58
:103BA0000548FEF719FF07B030BD00BF7C010020BB
:103BB000E856000894560008B45600082DE9F04174
:103BC0008EB0FCF75BFCFFF7D5FE6548FEF704FFFF
:103BD0006448FEF701FF002000F016F9012000F014
:103BE00013F9002000F056F9012000F053F9FFF717
:103BF00013FFFFF759FFFFF795FF5B48FEF7D2FE73
:103C000000F06CF930B15948FEF7CCFE012000F00D
:103C100031F9FEE7564C21465648FEF7C3FE032213
:103C20005549204600F07EF930B15448FEF7BAFEFF
:103C3000012000F01FF9FEE7514C204600F086F904
:103C4000E3780093A378627821784E48FEF7AAFEC5
:103C500041F288330193022300930A231422AC21FA
:103C60004948FEF79FFEFFF743FF30B94748FEF78C
:103C700099FE012000F0FEF8FEE74548FEF792FEAF
:103C8000002000F0F7F800241AE00134012000F0D1
:103C9000F1F821463F48FEF785FEFFF729FF38B1CE
:103CA000012000F0F7F8002000F0E4F8002407E01D
:103CB0004FF4FA70FCF70EFC02E03748FEF78CFE7A
:103CC000364B1B78002BFBD0344B00221A7032236A
:103CD000029306230193324B009301230222802199
:103CE0003048FDF7ADFA0028E7D12D4B5A78197806
:103CF00041EA022141F38D0109B22B4D2980D87888
:103D00009A7842EA002242F38D0212B2274E3280A4
:103D100058791B7943EA002343F38D031BB2DFF884
:103D20009080A8F800302348FEF73CFE06AFB8F9B3
:103D300000300093B6F90030B5F900202021384654
:103D4000FFF796FD02460020ADF816000DF11603B0
:103D500092B2394600F03EF9002896D10446AFE70A
:103D60001C57000850570008845700089C5700084B
:103D7000B8570008C0570008D8570008E457000893
:103D80006801002000580008185800083C58000836
:103D900058580008AC580008D05800087A01002094
:103DA000740100207C010020700100206E010020C1
:103DB0006C0100208858000808B50120FCF7DEFDE2
:103DC00008BD08B54FF48050FCF7D8FD08BD0000D1
:103DD00008B5012803D0B0F5805F04D008BD074BBB
:103DE00001221A70FAE74FF480510548FCF796FD5E
:103DF0000128F3D1034B01221A70EFE77A0100206A
:103E0000001802400C01002000B589B00346D8B963
:103E10000190154A116B41F004011163126B02F01D
:103E200004020192019A114A52F8232003920122BE
:103E3000049205920322069203A90D4A52F8230028
:103E4000FCF71AFC09B000BD0128ECD10022029257
:103E5000054A116B41F010011163126B02F0100260
:103E60000292029ADFE700BF0038024010590008B2
:103E70001C00002008B50122044B33F82010044B2D
:103E800053F82000FCF75EFD08BD00BF1059000884
:103E90001C00002008B50022044B33F82010044B0E
:103EA00053F82000FCF74EFD08BD00BF1059000874
:103EB0001C00002070470000034B1B681BB1024A26
:103EC0001368013B13607047D001002008B5FCF770
:103ED000EFFAFFF7F1FFFCF7EBFA08BD00B583B08E
:103EE0000A4B01930A4B00930A4B0B4A0B490C48AF
:103EF000FFF71EF810B1012003B000BD0848FEF71F
:103F0000F7FF0028F8D00120F6E700BFF1350008E0
:103F1000C13600082D370008E135000821330008BC
:103F2000D401002008B513460A4601460648FFF7AB
:103F30001DF808B1012008BD0348FFF75BF8002811
:103F4000F9D00120F7E700BFD401002008B5064BE7
:103F500093F8CA300BB9012008BD0422034900F0D0
:103F6000E5FA0020F8E700BFD4010020A1020020FC
:103F700000B585B08DF80100BDF81820ADF802201D
:103F8000BDF81C20ADF80420003918BF01218DF8C0
:103F900000101A788DF806205A788DF807209A7844
:103FA0008DF80820DB788DF8093069460348FFF763
:103FB0003BF800B1012005B000BD00BFD4010020D6
:103FC00008B500210248FFF793F800B1012008BDB1
:103FD000D401002000B583B042F2107CCDF804C0BB
:103FE000009313460A4601460348FFF79FF800B1C5
:103FF000012003B000BD00BFD401002053B94AB96D
:10400000002908BF00281CBF4FF0FF314FF0FF30E0
:1040100000F094B9ADF1080C6DE904CE00F006F89B
:10402000DDF804E0DDE9022304B070472DE9F04734
:104030000646DDF820E00846B4460D46002B4DD17B
:104040008A4214466BD9B2FA82F242B1C2F120031D
:10405000954026FA03F394401D4306FA02FC260C11
:10406000A7B2B5FBF6F14FEA1C4306FB115543EA34
:10407000054301FB07F0984209D9E31801F1FF3528
:1040800080F0FC80984240F2F980023923441B1AE8
:104090001FFA8CFCB3FBF6F006FB10334CEA034C22
:1040A00000FB07F363450AD914EB0C0C00F1FF3554
:1040B00080F0E680634540F2E380A444023840EAA1
:1040C0000140ACEB030C0021BEF1000F04D02CFA30
:1040D00002F30022CEE90032BDE8F0878B4208D916
:1040E000BEF1000F01D0CEE9006100210846BDE815
:1040F000F087B3FA83F1174600294CD1834202D3EB
:10410000B24200F20A81B6EB070C60EB0303012018
:104110001D46BEF1000FDFD0CEE900C5DCE7002A66
:1041200000F094801A46B4FA84F3002B40F0AA8081
:104130000B1B270CA6B201214FEA1C40B3FBF7F57D
:1041400007FB153340EA034306FB05F0984207D905
:10415000E31805F1FF3802D2984200F2E3804546A9
:104160001B1A1FFA8CFCB3FBF7F007FB10334CEA69
:10417000034C06FB00F3634508D914EB0C0C00F16B
:10418000FF3602D2634500F2CA803046ACEB030C26
:1041900040EA054098E7C1F120058B4022FA05FC72
:1041A0004CEA030C00FA01F426FA05F3E84002FA9F
:1041B00001F923434FEA1C4206FA01FAB0FBF2F779
:1041C0001FFA8CF602FB17001C0C44EA004407FBA4
:1041D00006F0A0420AD91CEB040407F1FF3880F076
:1041E0009A80A04240F29780023F6444241A9BB216
:1041F000B4FBF2F002FB104443EA044300FB06F672
:104200009E4209D91CEB030300F1FF3480F081804A
:104210009E427ED90238634440EA0740A0FB0974FD
:104220009B1BA3423E46A04663D360D0BEF1000F65
:104230000AD0BAEB060263EB080303FA05F5CA409D
:104240001543CB40CEE90053002145E7730843EA0C
:10425000C1734A08190C41EA02414FEAC67C9BB27D
:10426000B2FBF4F02646254627461F2243EA0143C7
:10427000B1FBF4F15B1B41EA00415DE7294606E72B
:1042800028461CE71A46C3F120019C4026FA01F398
:1042900020FA01F190400343270C06FA02FCB1FB1F
:1042A000F7F0A6B207FB1015190C41EA054100FB17
:1042B00006F58D423BD9611801D28D4220D8491BA9
:1042C0000138B1FBF7F5A84605FB06F507FB181109
:1042D0009BB243EA0143AB4227D2E31808F1FF3116
:1042E000C8D2AB42C6D2A8F102012344C2E7BA4504
:1042F0009CD2B7EB090664EB0C040138A04695E7A5
:10430000651B29440238B1FBF7F5A84605FB06F505
:10431000DCE7204680E7474668E70846F9E6A4441C
:10432000023833E7023D23441AE74146A2E7491B1E
:10433000B1FBF7F5A84605FB06F5C7E7704700BFD8
:104340000EB410B59DB01FAB029006906FF0004107
:104350000A48079104910A4953F8042B0591002457
:1043600002A9006801931B9400F008FA029B1C70DC
:104370001DB0BDE8104003B0704700BF240000200E
:104380000802FFFF30B5141E9BB005461A4605DA39
:104390008B2303604FF0FF301BB030BD4FF00003A4
:1043A000199318BF0123E31A02930593084B009158
:1043B0000491039369461E9B00F0E0F9431CBCBFC7
:1043C0008B232B60002CE7D0009B00221A70E3E7C0
:1043D0000802FFFF07B5009313460A46014603484B
:1043E0000068FFF7CFFF03B000BD00BF240000202E
:1043F00002440346934200D1704703F8011BF9E7DA
:1044000010B50139034632B111F8014F03F8014BE1
:10441000013A002CF7D11A440021934200D110BD7B
:1044200003F8011BF9E700001B4B2DE9F0411C6864
:10443000656C06460F463DBB502000F08DF8606469
:1044400028B90246154B16485B21FEF725FA856010
:10445000626CC0E90055C2E90355626CC2E90555BA
:10446000626CC2E90A55626CC2E90C55626CC2E921
:104470000E55626CC2E91055626CC2E91255626C4D
:1044800015772B46656C6B622A4639463046012308
:10449000BDE8F04100F006B82400002018590008DB
:1044A0002F590008F0B5044608B9146844B12046F5
:1044B00014F8015B4F1E17F8016F1EB965B915603E
:1044C000002005E0B542F6D1002BF0D11460037056
:1044D000F0BD1C460CE01DB9274614F8013B4E1EEA
:1044E00016F8015FAB42F6D1002BF2D000233B70EF
:1044F0001460EDE70A7870B56AB970BD9A4209D1C7
:104500000C46054614F8013F002BF6D015F8016F54
:104510009E42F7D001300378002BEFD11846ECE72C
:10452000014B1868704700BF240000200A449142E4
:1045300000F1FF3300D1704710B511F8014B03F8BB
:10454000014F9142F9D110BD034613F8012B002A07
:10455000FBD1181A01387047024B0146186800F069
:1045600025B800BF2400002070B50F4C0E4621680E
:10457000054611B900F0B4FB20603146284600F032
:10458000AFFB431C03D14FF0FF34204670BDC41C69
:1045900024F00304A042F8D0211A284600F0A0FB22
:1045A0000130F2D1EFE700BFCC0A00202DE9F8433B
:1045B000CD1C25F0030508350C2D38BF0C25002D2A
:1045C000064601DBA94204D90C2333600020BDE874
:1045D000F883334F00F066F83B681C463CBB294625
:1045E0003046FFF7C1FF431C044656D13C68A04645
:1045F000B8F1000F40D1002C49D023684146304625
:1046000004EB030900F06CFB814540D121686D1A71
:1046100029463046FFF7A8FF013038D023682B44E5
:1046200023603B685A685ABBC7F800800EE02268D6
:10463000521B1ED40B2A16D96119A342256018BF3C
:104640005960636808BF396062514B60304600F0C2
:104650002FF804F10B00231D20F00700C21A1CBF25
:104660001B1AA350B3E76268A3420CBF3A605A60BA
:10467000ECE723466468B1E74446D8F80480B7E71E
:104680001A465B68A342FBD100235360DEE70C238C
:104690003360304600F00CF898E70560D6E700BFBD
:1046A000D00A0020014800F02BBB00BFD40A002034
:1046B000014800F026BB00BFD40A00202DE9F047D6
:1046C0008E681F46BE4282460C469046334653D8FB
:1046D000B1F90C0010F4906F2BD06569236809695B
:1046E00005EB4505A3EB010905EBD5757B1C6D10AA
:1046F0004B44AB422A4684BF1D462A46430527D574
:1047000011465046FFF752FF064658B321694A4604
:10471000FFF70CFFA38923F4906343F08003A38188
:10472000266165614E44A5EB09052660A5603E46FD
:104730003B461F4620683A46414600F0B7FAA36858
:104740009B1BA36023683B4423600020BDE8F087E7
:10475000504600F079FB06460028E1D12169504619
:1047600000F026FB0C23CAF80030A38943F0400375
:10477000A3814FF0FF30E9E73E46DBE72DE9F04744
:104780001F468B891B069CB006460D46144610D565
:104790000B6973B94021FFF709FF2860286130B920
:1047A0000C2333604FF0FF301CB0BDE8F08740238E
:1047B0006B610023099320238DF829300397302360
:1047C000654F8DF82A304FF0010823461A78994634
:1047D0001AB1252A03F10103F8D1B9EB040A0BD071
:1047E0005346224629463046FFF768FF013000F065
:1047F000A380099A5244099299F80030002B00F0E6
:104800009B8000224FF0FF33CDE9053209F1010909
:10481000049207928DF853201A924C46052214F800
:10482000011B4D4800F074FA049AD0B9D00644BF79
:1048300020238DF85330110744BF2B238DF85330BC
:1048400099F800302A2B13D007994B4600204FF0DF
:104850000A0C1A78303A092A1C464AD9A8B107919D
:1048600013E0C01B08FA00F010430490A146D4E7FF
:10487000039B191D1B680391002BBBBF5B4242F0D9
:10488000020207930793B8BF049223782E2B0AD114
:1048900063782A2B32D1039B1A1D1B68039243EACB
:1048A000E37302340593DFF8B4902178032248467D
:1048B00000F02EFA38B1049BA0EB090040228240A0
:1048C000134301340493217825488DF828100622DB
:1048D00000F01EFA002835D0224818BB039B07338E
:1048E00023F0070308330393099B0344013409931E
:1048F0006BE701330CFB01210120AAE7002305939C
:10490000611C18464FF00A0C0A78303A092A0C4606
:1049100003D9002BC7D00590C5E701310CFB00205F
:104920000123F1E703AB00932A460F4B04A930465D
:10493000AFF30080421CD7D1AB895B063FF532AFA5
:10494000099831E703AB00932A46074B04A9304688
:1049500000F082F8EEE700BFE0590008E6590008D1
:10496000EA59000800000000BD4600082DE9F047A4
:10497000914698468A680B69089E9342B8BF1346D1
:10498000C9F8003091F8432007460C4612B10133B4
:10499000C9F800302368990642BFD9F800300233C5
:1049A000C9F80030256815F0060507D104F1190A89
:1049B000E368D9F800209B1AAB4229DC94F8433015
:1049C0002268003B18BF012392062ED404F1430253
:1049D00041463846B047013021D02368A16822699A
:1049E00003F00603042B01BFE568D9F80030ED1A87
:1049F00025EAE57518BF00258B1A2B449142C8BFE4
:104A00001D464FF000091A344D451AD1002008E028
:104A10000123524641463846B047013003D14FF09A
:104A2000FF30BDE8F0870135C2E7E1185A1C30209D
:104A300081F84300224494F8451082F84310023371
:104A4000C4E70123224641463846B0470130E6D04C
:104A500009F10109D8E700002DE9F04398460B7EE3
:104A600085B0782B174606460C9A0C4609D8622B5F
:104A700001F1430108D8002B00F0DC80582B00F036
:104A8000BD8004F1420539E0A3F163001528F8D890
:104A900001A555F820F000BFF14A0008054B0008B9
:104AA000834A0008834A0008834A0008834A0008B2
:104AB000054B0008834A0008834A0008834A00081F
:104AC000834A0008154C0008314B0008C34B00080E
:104AD000834A0008834A00083D4C0008834A0008C6
:104AE000314B0008834A0008834A0008CB4B00087A
:104AF0001368191D1B68116004F1420584F84230E7
:104B00000123A8E013682568181D1060280601D548
:104B10001B6803E06A06FBD5B3F90030002B03DA0B
:104B20002D225B4284F84320DFF878C10A2213E08B
:104B30002568106815F0800F50F8043B02D16D060F
:104B400048BF9BB21060227EDFF858C16F2A5DD14A
:104B50000822002084F843006568A560002D05DB6D
:104B600020681D4320F00400206051D00D46B3FBA7
:104B7000F2F002FB103E9A421CF80EE005F801ED3F
:104B80000346F4D9082A0BD12368DA0708D523692C
:104B900062689A42DEBF302305F8013C05F1FF351B
:104BA000491B2161CDF800803B4603AA21463046CF
:104BB000FFF7DCFE013053D14FF0FF3005B0BDE808
:104BC000F083236843F020032360DFF8DCC0782300
:104BD00084F845302068156810F0800F55F8043BC4
:104BE00003D110F0400F18BF9BB21560C50744BF3A
:104BF00040F02000206023B11022AAE7DFF8A4C013
:104C0000E6E7226822F020022260F5E70A22A0E708
:104C10000D46B7E71368D4F800C060691D1D156024
:104C20001CF0800F1B6801D0186003E01CF0400FDF
:104C3000FAD01880002323610D46B3E71368191DCD
:104C400011601D6862680021284600F061F808B113
:104C5000401B606063682361002384F84330A1E750
:104C600023692A4639463046C0470130A4D023681C
:104C70009B0714D4E068039B9842B8BF18469DE791
:104C8000012304F1190239463046C047013093D060
:104C90000135E36803995B1AAB42F1DCEAE70025D2
:104CA000F7E700BFF1590008025A0008884210B522
:104CB00001EB020402D98442234607D8431EA142D5
:104CC00007D011F8012B03F8012FF8E702448242C4
:104CD00000D110BD13F8011D02F8011DF7E7000017
:104CE00038B5064C0023054608462360FDF7FAFD5B
:104CF000431C02D1236803B12B6038BD880000201B
:104D00007047704700000000000000000000000035
:104D100001F0FF01102A2BDB10F0070F08D010F86C
:104D2000013B013A8B422DD010F0070F42B3F6D170
:104D3000F0B441EA012141EA014122F007047FF089
:104D400000070023F0E80256083C85EA010586EAE0
:104D5000010685FA47F5A3FA87F586FA47F6A5FA1C
:104D600087F68EB9EED1F0BC01F0FF0102F0070228
:104D700032B110F8013B013A83EA010313B1F8D1D3
:104D80000020704701387047002D06BF35460338B4
:104D9000073815F0010F07D1013015F4807F02BFED
:104DA000013015F4C03F0130F0BC0138704700BF3E
:104DB00037B5002944D051F8043C0190002BA1F1F3
:104DC0000404B8BFE418FFF76DFC1E4A019813688D
:104DD00033B96360146003B0BDE83040FFF768BCCE
:104DE000A34208D9256861198B4201BF19685B6825
:104DF00049192160EDE71A465B680BB1A342FAD965
:104E000011685518A5420BD1246821445418A342B7
:104E10001160E0D11C685B6853600C441460DAE7F1
:104E200002D90C230360D6E7256861198B4204BFC1
:104E300019685B68636004BF491921605460CAE760
:104E400003B030BDD00A00202DE9F04107461546D9
:104E50000C4621B9BDE8F0411146FFF7A7BB2AB9BE
:104E6000FFF7A6FF2C462046BDE8F08100F01AF8B7
:104E70008542064602D8B5EB500FF4D8294638468D
:104E8000FFF794FB804608B94446ECE7B5422A4652
:104E9000214628BF3246FFF749FB21463846FFF737
:104EA00087FFF1E751F8043C181F002BBCBF0B58DB
:104EB000C01870472E2E2F73797374656D2F73721F
:104EC000632F73746D333266342D68616C2F737485
:104ED0006D3332663478785F68616C5F636F7274CB
:104EE00065782E63000000002E2E2F737973746591
:104EF0006D2F7372632F73746D333266342D686156
:104F00006C2F73746D3332663478785F68616C5FD0
:104F10006770696F2E6300002E2E2F73797374658E
:104F20006D2F7372632F73746D333266342D686125
:104F30006C2F73746D3332663478785F68616C5FA0
:104F40006932632E630000002E2E2F73797374650F
:104F50006D2F7372632F73746D333266342D6861F5
:104F60006C2F73746D3332663478785F68616C5F70
:104F70007263632E630000002E2E2F7379737465A5
:104F80006D2F7372632F73746D333266342D6861C5
:104F90006C2F73746D3332663478785F68616C5F40
:104FA0007370692E630000002C2066756E6374694F
:104FB0006F6E3A2000000000617373657274696F50
:104FC0006E2022257322206661696C65643A206632
:104FD000696C6520222573222C206C696E65202562
:104FE00064257325730A000061626F727428292C8E
:104FF0002065786974696E672E2E2E005374616384
:105000006B206672616D653A0A0000002052302004
:105010003D2020253038580A000000002052312061
:105020003D2020253038580A000000002052322050
:105030003D2020253038580A00000000205233203F
:105040003D2020253038580A00000000205231321F
:10505000203D20253038580A00000000204C522006
:105060003D2020253038580A000000002050432001
:105070003D2020253038580A0000000020505352AF
:10508000203D20253038580A000000004653522F9A
:105090004641523A0A0000002043465352203D2028
:1050A00020253038580A00002048465352203D2021
:1050B00020253038580A00002044465352203D2015
:1050C00020253038580A00002041465352203D2008
:1050D00020253038580A0000204D4D464152203DD1
:1050E00020253038580A00002042464152203D20F9
:1050F00020253038580A00004D6973630A0000000B
:10510000204C522F4558435F52455455524E3D2036
:10511000253038580A0000005B48617264466175AA
:105120006C745D0A000000005B4275734661756C2B
:10513000745D0A005B55736167654661756C745DEB
:105140000A0000000D0A4F4B0D0A3E20000000002F
:105150000D0A4552524F52002C000000493F0D0AE3
:105160000000000043313D25730D000043323D2512
:10517000730D000043333D25640D000043300D00E6
:10518000433F0D0050303D25640D000050313D255A
:10519000640D000050323D25640D000050343D2563
:1051A000640D000050333D25642E25642E25642EA9
:1051B00025640D0050363D310D00000050363D3065
:1051C0000D00000053323D256C750D0053333D2515
:1051D0003034640D000000002D310D0A0000000085
:1051E00020205B5350495F574946495F496E6974B7
:1051F0005D205374617274696E6720535049206951
:105200006E697469616C697A6174696F6E2E2E2E95
:105210000A00000020205B5350495F574946495F10
:10522000496E69745D204750494F2070696E732044
:10523000636F6E666967757265640A0020205B5350
:1052400050495F574946495F496E69745D20455230
:10525000524F523A2048414C5F5350495F496E6962
:1052600074206661696C6564210A000020205B532C
:1052700050495F574946495F496E69745D205350F4
:1052800049207065726970686572616C20696E6929
:105290007469616C697A65640A00000020205B53C0
:1052A00050495F574946495F496E69745D205265B0
:1052B00073657474696E672057694669206D6F6401
:1052C000756C652E2E2E0A0020205B5350495F57C7
:1052D0004946495F496E69745D2053657474696E0F
:1052E000672072657365742070696E204C4F572E6D
:1052F0002E2E0A0020205B5350495F574946495FD4
:10530000496E69745D2057616974696E6720313038
:105310006D732E2E2E0A000020205B5350495F57DC
:105320004946495F496E69745D2053657474696EBE
:10533000672072657365742070696E20484947481C
:105340002E2E2E0A0000000020205B5350495F578C
:105350004946495F496E69745D2057616974696E99
:1053600067203530306D7320666F72206D6F647505
:105370006C6520626F6F742E2E2E0A0020205B5306
:1053800050495F574946495F496E69745D205265CF
:1053900073657420636F6D706C6574652C20656E29
:1053A00061626C696E67204E53532E2E2E0A0000E8
:1053B00020205B5350495F574946495F496E6974E5
:1053C0005D204E535320656E61626C65642C2063D2
:1053D0006865636B696E67206461746120726561E2
:1053E00064792070696E2E2E2E0A000020205B53F7
:1053F00050495F574946495F496E69745D20446171
:1054000074612072656164792070696E20737461C3
:1054100074653A2025640A0020205B5350495F5789
:105420004946495F496E69745D2057616974696EC8
:105430006720666F72206D6F64756C6520726561A0
:1054400064792028646174612072656164792070D8
:10545000696E292E2E2E0A0020205B5350495F577B
:105460004946495F496E69745D204552524F523A30
:105470002054696D656F75742077616974696E6712
:1054800020666F72206461746120726561647920A6
:1054900070696E202877616974656420256C7520B9
:1054A0006D73290A0000000020205B5350495F57AC
:1054B0004946495F496E69745D2044617461207298
:1054C000656164792070696E2066696E616C207315
:1054D000746174653A2025640A00000020205B5343
:1054E00050495F574946495F496E69745D20446180
:1054F0007461207265616479212052656164696E0E
:10550000672070726F6D70742E2E2E0A00000000DE
:1055100020205B5350495F574946495F496E697483
:105520005D204552524F523A2054696D656F757433
:10553000206F7220535049206572726F722072651D
:105540006164696E672070726F6D70742028636F7C
:10555000756E743D25642C207374617475733D25DC
:1055600064290A0020205B5350495F574946495F30
:10557000496E69745D2052656365697665642025AE
:10558000642062797465732C2076616C696461743F
:10559000696E672070726F6D70742E2E2E0A000077
:1055A00020205B5350495F574946495F496E6974F3
:1055B0005D2050726F6D70743A203078253032580B
:1055C000203078253032582030782530325820303D
:1055D00078253032582030782530325820307825E0
:1055E0003032580A0000000020205B5350495F57BA
:1055F0004946495F496E69745D204552524F523A9F
:1056000020496E76616C69642070726F6D707420D1
:105610007265636569766564210A000020205B532A
:1056200050495F574946495F496E69745D20507221
:105630006F6D70742076616C696461746564207349
:1056400075636365737366756C6C790A000000009E
:1056500057726F6E6720706172616D6574657273E9
:105660002076616C75653A2066696C65202573202B
:105670006F6E206C696E652025640D0A00000000C5
:10568000583A00002C593A002C5A3A00424D413108
:1056900038300000424D4131383020446574656334
:1056A0007465642120436869702049443A20256468
:1056B0000A000000424D4131383020446174612DB0
:1056C000526561647920486172647761726520492E
:1056D0006E7465727275707420436F6E666967755B
:1056E0007265642E00000000435249544943414C06
:1056F0003A20424D413138302053656E736F72202D
:105700006E6F74206465746563746564206F6E20C9
:10571000493243322062757321000000202020426C
:105720004D4131383020414343454C45524F4D4562
:10573000544552202D3E2057492D4649205544506E
:105740002053545245414D494E472020202000000F
:105750002D2D2D2D2D2D2D2D2D2D2D2D2D2D2D2D79
:105760002D2D2D2D2D2D2D2D2D2D2D2D2D2D2D2D69
:105770002D2D2D2D2D2D2D2D2D2D2D2D2D2D2D2D59
:105780002D2D0000496E697469616C697A696E67D4
:1057900020576946692E2E2E0A0000004552524FAE
:1057A000523A205769466920696E697420666169BA
:1057B0006C65640A0000000073657272610000008D
:1057C000436F6E6E656374696E6720746F20257316
:1057D0002E2E2E0A0000000039313730383335358F
:1057E000350000004552524F523A20576946692011
:1057F000636F6E6E656374206661696C65640A0030
:10580000426F6172642049503A2025642E25642E2F
:1058100025642E25640A00004F70656E696E67204E
:1058200055445020746F2025642E25642E25642E47
:1058300025643A25642E2E2E0A0000004552524F50
:10584000523A2055445020636F6E6E656374206633
:1058500061696C65640A000053747265616D696EFC
:10586000672E2057616974696E6720666F722042E7
:105870004D4131383020696E746572727570747381
:105880002E2E2E0A00000000424D41313830202DCE
:105890003E20583A20253564207C20593A20253571
:1058A00064207C205A3A202535640A0053656E64D2
:1058B000206572726F722023256C75202D20726511
:1058C000636F6E6E656374696E672E2E2E0A00001C
:1058D0004932432052656164204572726F722064C0
:1058E0007572696E6720496E746572727570742086
:1058F0004576656E742E000000000000010203046E
:10590000000000000000000001020304060708096F
:1059100020000000080000005245454E54206D61F3
:105920006C6C6F6320737563636565646564002FD9
:10593000686F6D652F696C672F616374696F6E7333
:105940002D72756E6E6572732F787061636B2D6446
:1059500065762D746F6F6C732F322F5F776F726B5C
:105960002F61726D2D6E6F6E652D656162692D6799
:1059700063632D787061636B2F61726D2D6E6F6E36
:10598000652D656162692D6763632D787061636B56
:105990002F6275696C642D6173736574732F627502
:1059A000696C642F77696E33322D7836342F736FBC
:1059B00075726365732F6E65776C69622D637967A5
:1059C00077696E2F6E65776C69622F6C6962632FE1
:1059D000737472696E672F737472746F6B2E6300C9
:1059E000232D302B2000686C4C00656667454647C8
:1059F000003031323334353637383941424344454B
:105A000046003031323334353637383961626364B9
:035A1000656600C8
:085A140018E6FF7F010000000D
:105A1C007856341201FFFFFF1000000084000020B4
:105A2C00000000000024F400AC140A02000802403C
:105A3C0000100240280000200000000000000000C0
:105A4C0068000000D0000000000000000000000012
:105A5C00000000000000000000000000000000003A
:105A6C00000000000000000000000000000000002A
:105A7C00000000000000000000000000000000001A
:085A8C0000000000325476987E
:040000050800018965
:00000001FF
